S00D000044656D6F332E737265635F
S11300000C942A000C9447000C9447000C9447006D
S11300100C9447000C9447000C9447000C94470040
S11300200C9447000C9447000C9447000C94470030
S11300300C9447000C9447000C9447000C94470020
S11300400C9447000C9447000C9447000C94470010
S11300500C94470011241FBECFE5D8E0DEBFCDBF0E
S113006010E0A0E6B0E0EAE6F3E002C005900D92ED
S1130070A83FB107D9F720E0A8EFB0E001C01D9276
S1130080A83FB207E1F70E9404010C94B3010C9459
S113009000009C0183E083BF83EF08C082BF98B750
S11300A0916098BFA89508B600FEFDCF2150310994
S11300B0A8F713BE08950F931F93CF93DF938C017A
S11300C084E6869FA001879F500D112498013695E0
S11300D02795ABE7B4E10E94A401BC01769567952E
S11300E0CA010E949001EB01209751F0D99AC801EE
S11300F00E944900D998C8010E9449002197B1F78C
S1130100DF91CF911F910F9108950E94660161E0E4
S113011080E00E946B0180E690E00E947F0168E22B
S113012070E083E593E00E945B0068E270E086EF94
S113013092E00E945B0068E270E083E593E00E9435
S11301405B0068E270E08DE792E00E945B0061E092
S113015081E00E946B018DE690E00E947F0108958A
S1130160CF93C82F14BA15BA44B36C5F7F4F81E0A4
S113017090E09C0102C0220F331F6A95E2F7242B02
S113018024BB25B30C2E02C0880F991F0A94E2F7F2
S1130190822B85BB81E090E00E94490023B330E0CC
S11301A002C035952795CA95E2F781E090E020FFDB
S11301B002C080E090E0CF9108950F931F93CF93F6
S11301C0DF9300E010E018C0BE01C8010E94B00037
S11301D0009749F0C801880F991F880F991F01964D
S11301E08C0F9D1F0CC02196C430D10569F70F5F99
S11301F01F4F0430110519F0C0E0D0E0E5CFDF91C6
S1130200CF911F910F9108958FE081BD0E943E010F
S1130210D19A85E590E00E9449000E94DD00049790
S113022019F40E948500F5CF0E94660161E080E028
S11302300E946B0188EC90E00E947F01EACF662364
S113024011F0C09A01C0C098C19882BB8FEF81BBE6
S1130250C29A000000000000C2980895C098C19A94
S113026011BA90B3C29A00000000000011BA90B312
S1130270C29899239CF30E941F010895B89AB99AD1
S1130280BA9A80E190E00E94490060E080E30E9415
S11302901F0185E090E00E94490060E080E30E9435
S11302A01F0181E090E00E94490060E08CE30E941D
S11302B02E0160E08CE00E942E0160E086E00E9446
S11302C02E0160E081E00E942E01089560E081E04B
S11302D00E942E010895CF93C62F98E2899FC00DE6
S11302E0112460E082E00E942E01CC2331F060E012
S11302F084E10E942E01C150D1F7CF910895CF938C
S1130300DF93EC012196FC018081882331F061E0C8
S11303100E942E0189918111FACFDF91CF91089526
S1130320AA1BBB1B51E107C0AA1FBB1FA617B70717
S113033010F0A61BB70B881F991F5A95A9F7809533
S11303409095BC01CD010895A29FB001B39FC00157
S1130350A39F700D811D1124911DB29F700D811DED
S10D03601124911D0895F894FFCFB5
S113036A506C6179696E6720536F6E6700536F6EC4
S113037A672046696E69736865640025642F25647D
S113038A2F256400253032643A253032643A253008
S113039A32643A256400504D00253032643A2530DF
S11303AA32643A253032643A256420257300414D7B
S11303BA00253032643A253032643A253032643AC0
S11303CA253032642025730057726F6E67204B659F
S11303DA7921004D696E7574653A2000486F75720B
S11303EA3A20004461793A20004D6F6E74683A20CD
S10B03FA00596561723A20000C
S9030000FC
