S00D000044656D6F332E737265635F
S11300000C94AB000C94C8000C94C8000C94C80069
S11300100C94C8000C94C8000C94C8000C94C8003C
S11300200C94C8000C94C8000C94C8000C94C8002C
S11300300C94C8000C94C8000C94C8000C94C8001C
S11300400C94C8000C94C8000C94C8000C94C8000C
S11300500C94C8006E616E00696E660000407A10F0
S1130060F35A00A0724E18090010A5D4E80000E865
S11300707648170000E40B54020000CA9A3B0000C3
S113008000E1F505000080969800000040420F0052
S11300900000A08601000000102700000000E80313
S11300A0000000006400000000000A0000000000DE
S11300B00100000000002C76D888DC674F0823DF9D
S11300C0C1DFAE59E1B1B796E5E3E453C63AE65170
S11300D0997696E8E6C28426EB898C9B62ED407C97
S11300E06FFCEFBC9C9F40F2BAA56FA5F490055A33
S11300F02AF75C936B6CF9676DC11BFCE0E40D4758
S1130100FEF520E6B500D0ED902E0300943577057A
S11301100080841E080000204E0A000000C80C3332
S11301203333330F986E12831141EF8D2114893BC1
S1130130E65516CFFEE6DB18D1844B381BF77C1D41
S1130140901DA4BBE424203284725E228100C9F194
S113015024ECA1E53D2711241FBECFE5D8E0DEBF86
S1130160CDBF12E0A0E6B0E0E6E1F4E102C0059004
S11301700D92A631B107D9F722E0A6E1B2E001C0A1
S11301801D92A833B207E1F70E947D020C94090A7C
S11301900C9400009C0183E083BF83EF08C082BFFE
S11301A098B7916098BFA89508B600FEFDCF21507E
S11301B03109A8F713BE08952F923F924F925F9290
S11301C06F927F928F929F92AF92BF92CF92DF9263
S11301D0EF92FF920F931F93CF93DF9300D000D041
S11301E0CDB7DEB7662E772E082FF92E5C834B83AE
S11301F0262D372D402F5F2D60E070E080E89FE3CF
S11302000E940F0320E030E04AE754E40E943E04D9
S1130210162FE72ED82EC92E2B813C81B90180E000
S113022090E00E94B003212F3E2D4D2D5C2D0E94A5
S11302300F030E94810369837A836B837C8320E0AC
S113024030E040E05FE3612F7E2D8D2D9C2D0E94D8
S11302503E0420E030E048EC52E40E943E04562E76
S1130260472E382E292E862E972EA82EB92E0E9480
S1130270E50261E080E00E94EA022F923F924F92F1
S11302805F92CF92DF92EF921F9388EC91E09F935D
S11302908F930F2EF7E2CF2EF2E0DF2EF02DDF92B8
S11302A0CF920E948909C6010E94FE0261E081E0AA
S11302B00E94EA02FF920F937F926F929A819F931A
S11302C029812F938AED91E09F938F93DF92CF92B0
S11302D00E948909C6010E94FE020FB6F894DEBF8F
S11302E00FBECDBF2B813C81232BB9F0D99A682D49
S11302F0792D8A2D9B2D0E9481036B017C01CB01FA
S11303000E94CA00D998C6010E94CA008B819C81B0
S113031001979C838B83892B49F70F900F900F9043
S11303200F90DF91CF911F910F91FF90EF90DF908D
S1130330CF90BF90AF909F908F907F906F905F9081
S11303404F903F902F900895CF93C82F14BA15BAA9
S113035044B36C5F7F4F81E090E09C0102C0220FA8
S1130360331F6A95E2F7242B24BB25B30C2E02C05D
S1130370880F991F0A94E2F7822B85BB81E090E0F5
S11303800E94CA0023B330E002C035952795CA9570
S1130390E2F781E090E020FF02C080E090E0CF919E
S11303A008950F931F93CF93DF9300E010E018C0DC
S11303B0BE01C8010E94A401009749F0C801880F3A
S11303C0991F880F991F01968C0F9D1F0CC02196B1
S11303D0C430D10569F70F5F1F4F0430110519F0C0
S11303E0C0E0D0E0E5CFDF91CF911F910F91089548
S11303F04F925F926F927F928F929F92AF92BF9231
S1130400EF92FF920F931F93CF93DF93CDB7DEB795
S1130410C856D1400FB6F894DEBF0FBECDBF0E94C0
S1130420E50261E080E00E94EA028CEE91E00E9425
S1130430FE0288E691E0E0E6F0E0DE01119601902C
S11304400D920197E1F78E010F5F1F4F7E0187E93F
S1130450E81A8EEFF80A0F2E812C912CF0E8AF2EBB
S1130460FFE3BF2EF02DF80164817581072E000C87
S1130470880B990B0E94B203A50194010E943E04CB
S11304800E9481032B013C01F8016081718182810A
S11304909381A2010E94DC000E94D101089751F4CB
S11304A020E030E040E45FE3C501B4010E943E0473
S11304B04B015C010A5F1F4F0E151F05A1F661E099
S11304C081E00E94EA0289EF91E00E94FE02C8598D
S11304D0DE4F0FB6F894DEBF0FBECDBFDF91CF91D4
S11304E01F910F91FF90EF90BF90AF909F908F90CE
S11304F07F906F905F904F9008958FE081BD0E9430
S1130500BD020E94E50261E080E00E94EA02D19A05
S113051085E590E00E94CA000E94D101049719F475
S11305200E94F801F5CF0E94E50261E080E00E949C
S1130530EA0287E092E00E94FE02EACF662311F00D
S1130540C09A01C0C098C19882BB8FEF81BBC29A88
S1130550000000000000C2980895C098C19A11BA22
S113056090B3C29A00000000000011BA90B3C29880
S113057099239CF30E949E020895B89AB99ABA9A54
S113058080E190E00E94CA0060E080E30E949E0245
S113059085E090E00E94CA0060E080E30E949E0231
S11305A081E090E00E94CA0060E08CE30E94AD020A
S11305B060E08CE00E94AD0260E086E00E94AD0243
S11305C060E081E00E94AD02089560E081E00E9455
S11305D0AD020895CF93C62F98E2899FC00D1124D0
S11305E060E082E00E94AD02CC2331F060E084E15F
S11305F00E94AD02C150D1F7CF910895CF93DF93FC
S1130600EC012196FC018081882331F061E00E9495
S1130610AD0289918111FACFDF91CF9108950E94A3
S113062023030C9404040E94FD0358F00E94F60373
S113063040F029F45F3F29F00C94ED0351110C9420
S113064038040C94F3030E94150468F39923B1F35E
S1130650552391F3951B550BBB27AA2762177307E4
S1130660840738F09F5F5F4F220F331F441FAA1F78
S1130670A9F335D00E2E3AF0E0E832D09150504034
S1130680E695001CCAF72BD0FE2F29D0660F771FE2
S1130690881FBB1F261737074807AB07B0E809F0C8
S11306A0BB0B802DBF01FF2793585F4F3AF09E3F4D
S11306B0510578F00C94ED030C9438045F3FE4F397
S11306C0983ED4F3869577956795B795F7959F5F90
S11306D0C9F7880F911D9695879597F90895E1E0DC
S11306E0660F771F881FBB1F621773078407BA073B
S11306F020F0621B730B840BBA0BEE1F88F7E09596
S113070008950E941D0488F09F5798F0B92F9927E7
S1130710B751B0F0E1F0660F771F881F991F1AF0E8
S1130720BA95C9F714C0B13091F00E943704B1E012
S113073008950C943704672F782F8827B85F39F011
S1130740B93FCCF3869577956795B395D9F73EF481
S113075090958095709561957F4F8F4F9F4F089529
S1130760E89409C097FB3EF4909580957095619547
S11307707F4F8F4F9F4F9923A9F0F92F96E9BB27FD
S11307809395F695879577956795B795F111F8CF79
S1130790FAF4BB0F11F460FF1BC06F5F7F4F8F4FE4
S11307A09F4F16C0882311F096E911C0772321F0DA
S11307B09EE8872F762F05C0662371F096E8862F72
S11307C070E060E02AF09A95660F771F881FDAF7C9
S11307D0880F9695879597F9089597F99F6780E80C
S11307E070E060E008959FEF80EC089500240A947F
S11307F01616170618060906089500240A941216F8
S11308001306140605060895092E0394000C11F42A
S1130810882352F0BB0F40F4BF2B11F460FF04C0D7
S11308206F5F7F4F8F4F9F4F089557FD9058440F30
S1130830551F59F05F3F71F04795880F97FB991F3B
S113084061F09F3F79F087950895121613061406F8
S1130850551FF2CF4695F1DF08C016161706180685
S1130860991FF1CF86957105610508940895E89460
S1130870BB2766277727CB0197F908950E94510477
S11308800C9404040E94F60338F00E94FD0320F047
S1130890952311F00C94ED030C94F30311240C94A0
S11308A038040E94150470F3959FC1F3950F50E02E
S11308B0551F629FF001729FBB27F00DB11D639F0E
S11308C0AA27F00DB11DAA1F649F6627B00DA11DB4
S11308D0661F829F2227B00DA11D621F739FB00D5A
S11308E0A11D621F839FA00D611D221F749F3327CA
S11308F0A00D611D231F849F600D211D822F762F63
S11309006A2F11249F5750409AF0F1F088234AF03F
S1130910EE0FFF1FBB1F661F771F881F91505040AB
S1130920A9F79E3F510580F00C94ED030C94380414
S11309305F3FE4F3983ED4F3869577956795B79532
S1130940F795E7959F5FC1F7FE2B880F911D96954C
S1130950879597F90895A0E1B0E0E1EBF4E00C94F9
S113096028087C011B016A01FC011782168283811D
S113097081FF44C39E012F5F3F4F3901F7019381EB
S1130980F10193FD859193FF81911F01882309F45F
S113099031C3853239F493FD859193FF81911F0111
S11309A0853239F4B70190E00E944D095601650182
S11309B0E5CF10E0512C912CFFE1F915D8F08B32E2
S11309C079F038F4803279F08332A1F4F92DF061B2
S11309D02EC08D3261F0803369F4292D21602DC041
S11309E0392D3260932E892D8460982E2AC0E92DEA
S11309F0E86015C097FC2DC020ED280F2A3088F43C
S1130A0096FE06C03AE0139F200D1124122F19C040
S1130A108AE0589E200D1124522EE92DE0629E2E6C
S1130A2010C08E3231F496FCE5C2F92DF0649F2E8D
S1130A3008C08C3621F4292D2068922E02C08836F5
S1130A4041F4F10193FD859193FF81911F0181117F
S1130A50B3CF9BEB980F933020F4992D9061805E77
S1130A6007C09BE9980F933008F066C1992D9F7ECB
S1130A7096FF16E09F73992E853619F49064992E8B
S1130A8008C0863621F4392F3068932E02C0111124
S1130A90115097FE07C01C3350F444244394410E74
S1130AA027E00BC0183038F027E017E005C027E036
S1130AB09CE3492E02C0212F412C560184E0A80E4C
S1130AC0B11CF6016081718182819381042DA3019F
S1130AD00E945F086C01F981FC87F0FF02C0F3FFFC
S1130AE006C091FC06C092FE06C000E205C00DE2FD
S1130AF003C00BE201C000E08C858C7019F0011179
S1130B005AC29BC297FE10C04C0CFC85F4FF04C073
S1130B108A81813309F44A94141474F528E0241565
S1130B2078F588E0482E2CC096FC2AC0812F90E0EE
S1130B308C159D059CF03CEFC3163FEFD30674F073
S1130B40892D8068982E0AC0E2E0F0E0EC0FFD1FCA
S1130B50E10FF11D8081803319F411501111F4CF8C
S1130B6097FE0EC044244394410E812F90E0C81692
S1130B70D9062CF41C1904C04424439401C010E089
S1130B8097FE06C01C141D0434F4C601019605C06A
S1130B9085E090E002C081E090E00111019611230C
S1130BA031F0212F30E02F5F3F4F820F931F252D0F
S1130BB030E08217930714F4581A01C0512C892D80
S1130BC0897049F4552039F0B70180E290E00E9421
S1130BD04D095A94F7CF002329F0B701802F90E0F4
S1130BE00E944D0993FC09C0552039F0B70180E3F8
S1130BF090E00E944D095A94F7CF97FE4CC04601ED
S1130C00D7FE02C0812C912CC60188199909F301E1
S1130C10E80FF91FFE87ED87960124193109388BF7
S1130C202F87012F10E01195019511093FEF8316CD
S1130C30930629F4B7018EE290E00E944D09C8148E
S1130C40D9044CF08F8598898815990524F4ED858D
S1130C50FE85818101C080E3F1E08F1A91082D8522
S1130C603E852F5F3F4F3E872D87801691062CF0DF
S1130C70B70190E00E944D09D9CFC814D90441F4BA
S1130C809A81963320F4953319F43C8534FF81E33B
S1130C90B70190E04EC08A81813319F09C859F7E14
S1130CA09C87B70190E00E944D09111105C094FC86
S1130CB018C085E690E017C0B7018EE290E00E946C
S1130CC04D091E5F82E001E0080FF301E80FF11DFA
S1130CD08081B70190E00E944D09802F0113F3CF6A
S1130CE0E6CF85E490E0B7010E944D09D7FC06C029
S1130CF0C114D10441F4EC85E4FF05C0D194C1943E
S1130D00D1088DE201C08BE2B70190E00E944D0949
S1130D1080E32AE0C216D1042CF08F5FFAE0CF1AE8
S1130D20D108F7CFB70190E00E944D09B701C60181
S1130D30C0960E944D0954C1833631F0833779F04F
S1130D40833509F056C020C0560132E0A30EB11C11
S1130D50F6018081898301E010E0630112C056012D
S1130D60F2E0AF0EB11CF601C080D18096FE03C044
S1130D70612F70E002C06FEF7FEFC6010E9442094D
S1130D808C01F92DFF7714C0560122E0A20EB11C8C
S1130D90F601C080D18096FE03C0612F70E002C0CE
S1130DA06FEF7FEFC6010E9437098C01F92DF068BF
S1130DB09F2EF3FD1AC0852D90E008171907A8F49B
S1130DC0B70180E290E00E944D095A94F4CFF601F5
S1130DD097FC859197FE81916F01B70190E00E9485
S1130DE04D0951105A94015011090115110579F753
S1130DF0F7C0843611F0893661F5560197FE09C0B3
S1130E0024E0A20EB11CF60160817181828193817C
S1130E100AC0F2E0AF0EB11CF60160817181072EA9
S1130E20000C880B990BF92DFF769F2E97FF09C0B4
S1130E3090958095709561957F4F8F4F9F4FF06887
S1130E409F2E2AE030E0A3010E94AB09C82EC618E9
S1130E503FC0092D853721F40F7E2AE030E01DC004
S1130E60097F8F3691F018F4883559F0C3C0803764
S1130E7019F0883711F0BEC0006104FF09C0046096
S1130E8007C094FE08C0066006C028E030E005C034
S1130E9020E130E002C020E132E0560107FF09C042
S1130EA084E0A80EB11CF601608171818281938176
S1130EB008C0F2E0AF0EB11CF6016081718180E0E0
S1130EC090E0A3010E94AB09C82EC6180F77902E9C
S1130ED096FE0BC0092D0E7FC11650F494FE0AC075
S1130EE092FC08C0092D0E7E05C0DC2C092D03C020
S1130EF0DC2C01C0D12E04FF0DC0FE01EC0DF11D50
S1130F008081803311F4097E09C002FF06C0D394A6
S1130F10D39404C0802F867809F0D39403FD11C0C4
S1130F2000FF06C01C2DD51480F4150D1D190DC02D
S1130F30D51458F4B70180E290E00E944D09D3948F
S1130F40F7CFD51410F45D1801C0512C04FF10C064
S1130F50B70180E390E00E944D0902FF17C001FD34
S1130F6003C088E790E002C088E590E0B7010CC0B8
S1130F70802F867859F001FF02C08BE201C080E225
S1130F8007FD8DE2B70190E00E944D09C11638F4C7
S1130F90B70180E390E00E944D091150F7CFCA9445
S1130FA0F301EC0DF11D8081B70190E00E944D0921
S1130FB0C110F5CF15C0F4E0F51560F584E0581ABA
S1130FC093FE1FC0011127C02C8523FF2AC004E50E
S1130FD010E0392D3071932EF8018491811124C0D1
S1130FE0552009F4E4CCB70180E290E00E944D0959
S1130FF05A94F6CFF7018681978126C08FEF9FEF31
S113100023C0B70180E290E00E944D095A94511028
S1131010F8CFD8CF512CB701802F90E00E944D0912
S1131020D3CF08E510E0D5CF91108052B70190E0FE
S11310300E944D090F5F1F4FCFCF23E0251510F4F9
S113104083E0BDCF512CC0CF6096E2E10C944408FC
S11310502F923F924F925F926F927F928F929F92C4
S1131060AF92BF92CF92DF92EF92FF920F931F93B2
S1131070CF93DF93CDB7DEB7CA1BDB0B0FB6F89463
S1131080DEBF0FBECDBF09942A88398848885F84A3
S11310906E847D848C849B84AA84B984C884DF8014
S11310A0EE80FD800C811B81AA81B981CE0FD11DF8
S11310B00FB6F894DEBF0FBECDBFED010895283002
S11310C008F027E03327DA01990F311D87FD91607D
S11310D000966105710539F432602E5F3D9330E36B
S11310E02A95E1F708959F3F30F080387105610536
S11310F009F03C5F3C5F3D93913008F08068911D9E
S1131100DF93CF931F930F93FF92EF92192F987F42
S11311109695E92F96959695E90FFF27EA54FF4F88
S113112099273327EE24FF24A701E70105900894AB
S1131130079428F4360FE71EF81E491F511D660F49
S1131140771F881F991F0694A1F70590079428F428
S1131150E70EF81E491F561FC11D770F881F991FE0
S1131160661F0694A1F70590079428F4F80E491F0A
S1131170561FC71FD11D880F991F661F771F06941E
S1131180A1F70590079420F4490F561FC71FD81FD5
S1131190990F661F771F881F0694A9F784911095ED
S11311A0177041F0D695C79557954795F794E794EE
S11311B01A95C1F7ECE5F0E0689415901591359116
S11311C06591959105907FE27395E118F10A430BBF
S11311D0560BC90BD009C0F7E10CF11E431F561F73
S11311E0C91FD01D7EF4703311F48A95E6CFE894BC
S11311F0015030F0080F0AF40027021708F4202FDA
S11312002395022F7A3328F079E37D932A95E9F721
S113121010C07D932A9589F606949795679537951E
S113122017951794E118F10A430B560BC90BD00913
S113123098F023957E9173957A3308F070E37C934C
S11312402013B8F77E9170617D9330F0839571E33C
S11312507D9370E32A95E1F71124EF90FF900F91AD
S11312601F91CF91DF91992787FD90950895FC01F7
S11312700590615070400110D8F7809590958E0FBD
S11312809F1F0895FC016150704001900110D8F730
S1131290809590958E0F9F1F08950F931F93CF9362
S11312A0DF93FB01238121FD03C08FEF9FEF2CC04F
S11312B022FF16C046815781248135814217530786
S11312C044F4A081B1819D012F5F3F4F318320837E
S11312D08C93268137812F5F3F4F3783268314C039
S11312E08B01EC01FB010084F185E02D0995892B2C
S11312F0E1F6D80116968D919C9117970196179651
S11313009C938E931697CE01DF91CF911F910F91ED
S11313100895AEE0B0E0EFE8F9E00C9436080D89EA
S11313201E8986E08C831A8309838FEF9FE79E834F
S11313308D83AE01475E5F4F6F89788DCE01019634
S11313400E94AB04EF81F885E00FF11F10822E9606
S1131350E4E00C945208FA01AA27283051F1203114
S113136081F1E8946F936E7F6E5F7F4F8F4F9F4F35
S1131370AF4FB1E03ED0B4E03CD0670F781F891F77
S11313809A1FA11D680F791F8A1F911DA11D6A0F45
S1131390711D811D911DA11D20D009F468943F91F8
S11313A02AE0269F11243019305D3193DEF6CF01F7
S11313B00895462F4770405D4193B3E00FD0C9F7BD
S11313C0F6CF462F4F70405D4A3318F0495D31FD2A
S11313D04052419302D0A9F7EACFB4E0A69597957D
S11313E0879577956795BA95C9F700976105710553
S11313F008959B01AC010A2E06945795479537959D
S11314002795BA95C9F7620F731F841F951FA01DF6
S10914100895F894FFCFDB
S11314160A4FFA441400AE0FA744280085ABC6440D
S11314260A001F85BB440F00AE0FA74428000A4FCD
S1131436FA4414000000DF4428001F85BB4428003A
S1131446AE0FA744140085ABC6440A001F85BB44EF
S11314560F005CAF9D442800AE0FA74414000A4F4A
S1131466FA4428000A4FFA441400AE0FA7441E009B
S113147685ABC6440A001F85BB440F00AE0FA744C4
S113148628000A4FFA441400C3D594442800337B39
S11314968C441400A49884441E00D77BD2441E00B6
S11314A6A498844423000A4FFA440A008F42EC4469
S11314B60F001F85BB44280085ABC6441400AE0F3D
S11314C6A744640085ABC64414000A4FFA442800B6
S11314D685ABC64414000A4FFA44280085ABC644BB
S11314E61400A498844428000A4FFA4414008F4236
S11314F6EC441E001F85BB441E0085ABC644230076
S11315060A4FFA440A008F42EC440F008F42EC441F
S113151628000A4FFA4414000A4FFA44640085ABC3
S1131526C6441400AE0FA744280085ABC644140075
S11315360A4FFA44280085ABC6441400C3D5944424
S11315462800337B8C441400A49884441E00D77B63
S1131556D2441E00A498844423000A4FFA440A0085
S11315668F42EC440F001F85BB44280085ABC6445C
S11315761400AE0FA74478007761763A25322E32EE
S11315866620683A25322E3266006379636C657389
S11315963A256420663A25322E326600506C61790B
S11315A6696E6720536F6E6700536F6E67204669D6
S11315B66E69736865640057726F6E67204B657950
S10915C621002564000071
S9030000FC
